{
  "_format": "hh-sol-artifact-1",
  "contractName": "buycoffee",
  "sourceName": "contracts/buycoffee.sol",
  "abi": [
    {
      "inputs": [],
      "stateMutability": "nonpayable",
      "type": "constructor"
    },
    {
      "anonymous": false,
      "inputs": [
        {
          "indexed": true,
          "internalType": "address",
          "name": "from",
          "type": "address"
        },
        {
          "indexed": false,
          "internalType": "uint256",
          "name": "timestamp",
          "type": "uint256"
        },
        {
          "indexed": false,
          "internalType": "string",
          "name": "name",
          "type": "string"
        },
        {
          "indexed": false,
          "internalType": "string",
          "name": "message",
          "type": "string"
        }
      ],
      "name": "NewMemo",
      "type": "event"
    },
    {
      "inputs": [
        {
          "internalType": "string",
          "name": "_name",
          "type": "string"
        },
        {
          "internalType": "string",
          "name": "_message",
          "type": "string"
        }
      ],
      "name": "buyCoffee",
      "outputs": [],
      "stateMutability": "payable",
      "type": "function"
    },
    {
      "inputs": [],
      "name": "getMemos",
      "outputs": [
        {
          "components": [
            {
              "internalType": "address",
              "name": "from",
              "type": "address"
            },
            {
              "internalType": "uint256",
              "name": "timestamp",
              "type": "uint256"
            },
            {
              "internalType": "string",
              "name": "name",
              "type": "string"
            },
            {
              "internalType": "string",
              "name": "message",
              "type": "string"
            }
          ],
          "internalType": "struct buycoffee.Memo[]",
          "name": "",
          "type": "tuple[]"
        }
      ],
      "stateMutability": "view",
      "type": "function"
    },
    {
      "inputs": [],
      "name": "widthrawTips",
      "outputs": [],
      "stateMutability": "payable",
      "type": "function"
    }
  ],
  "bytecode": "0x608060405234801561001057600080fd5b50336000806101000a81548173ffffffffffffffffffffffffffffffffffffffff021916908373ffffffffffffffffffffffffffffffffffffffff160217905550610b63806100606000396000f3fe6080604052600436106100345760003560e01c8063204206e1146100395780633ad25be614610055578063865c51721461005f575b600080fd5b610053600480360381019061004e9190610688565b61008a565b005b61005d610212565b005b34801561006b57600080fd5b506100746102a8565b604051610081919061090e565b60405180910390f35b600034116100cd576040517f08c379a00000000000000000000000000000000000000000000000000000000081526004016100c49061098d565b60405180910390fd5b600160405180608001604052803373ffffffffffffffffffffffffffffffffffffffff16815260200142815260200184815260200183815250908060018154018082558091505060019003906000526020600020906004020160009091909190915060008201518160000160006101000a81548173ffffffffffffffffffffffffffffffffffffffff021916908373ffffffffffffffffffffffffffffffffffffffff16021790555060208201518160010155604082015181600201908051906020019061019c92919061048b565b5060608201518160030190805190602001906101b992919061048b565b5050503373ffffffffffffffffffffffffffffffffffffffff167fc56140e05f516509ae28110e0f72e17558a7561630dad2647c3ae87d986e365c428484604051610206939291906109f5565b60405180910390a25050565b60008054906101000a900473ffffffffffffffffffffffffffffffffffffffff1673ffffffffffffffffffffffffffffffffffffffff166108fc479081150290604051600060405180830381858888f193505050506102a6576040517f08c379a000000000000000000000000000000000000000000000000000000000815260040161029d90610aac565b60405180910390fd5b565b60606001805480602002602001604051908101604052809291908181526020016000905b8282101561048257838290600052602060002090600402016040518060800160405290816000820160009054906101000a900473ffffffffffffffffffffffffffffffffffffffff1673ffffffffffffffffffffffffffffffffffffffff1673ffffffffffffffffffffffffffffffffffffffff1681526020016001820154815260200160028201805461035f90610afb565b80601f016020809104026020016040519081016040528092919081815260200182805461038b90610afb565b80156103d85780601f106103ad576101008083540402835291602001916103d8565b820191906000526020600020905b8154815290600101906020018083116103bb57829003601f168201915b505050505081526020016003820180546103f190610afb565b80601f016020809104026020016040519081016040528092919081815260200182805461041d90610afb565b801561046a5780601f1061043f5761010080835404028352916020019161046a565b820191906000526020600020905b81548152906001019060200180831161044d57829003601f168201915b505050505081525050815260200190600101906102cc565b50505050905090565b82805461049790610afb565b90600052602060002090601f0160209004810192826104b95760008555610500565b82601f106104d257805160ff1916838001178555610500565b82800160010185558215610500579182015b828111156104ff5782518255916020019190600101906104e4565b5b50905061050d9190610511565b5090565b5b8082111561052a576000816000905550600101610512565b5090565b6000604051905090565b600080fd5b600080fd5b600080fd5b600080fd5b6000601f19601f8301169050919050565b7f4e487b7100000000000000000000000000000000000000000000000000000000600052604160045260246000fd5b6105958261054c565b810181811067ffffffffffffffff821117156105b4576105b361055d565b5b80604052505050565b60006105c761052e565b90506105d3828261058c565b919050565b600067ffffffffffffffff8211156105f3576105f261055d565b5b6105fc8261054c565b9050602081019050919050565b82818337600083830152505050565b600061062b610626846105d8565b6105bd565b90508281526020810184848401111561064757610646610547565b5b610652848285610609565b509392505050565b600082601f83011261066f5761066e610542565b5b813561067f848260208601610618565b91505092915050565b6000806040838503121561069f5761069e610538565b5b600083013567ffffffffffffffff8111156106bd576106bc61053d565b5b6106c98582860161065a565b925050602083013567ffffffffffffffff8111156106ea576106e961053d565b5b6106f68582860161065a565b9150509250929050565b600081519050919050565b600082825260208201905092915050565b6000819050602082019050919050565b600073ffffffffffffffffffffffffffffffffffffffff82169050919050565b60006107578261072c565b9050919050565b6107678161074c565b82525050565b6000819050919050565b6107808161076d565b82525050565b600081519050919050565b600082825260208201905092915050565b60005b838110156107c05780820151818401526020810190506107a5565b838111156107cf576000848401525b50505050565b60006107e082610786565b6107ea8185610791565b93506107fa8185602086016107a2565b6108038161054c565b840191505092915050565b6000608083016000830151610826600086018261075e565b5060208301516108396020860182610777565b506040830151848203604086015261085182826107d5565b9150506060830151848203606086015261086b82826107d5565b9150508091505092915050565b6000610884838361080e565b905092915050565b6000602082019050919050565b60006108a482610700565b6108ae818561070b565b9350836020820285016108c08561071c565b8060005b858110156108fc57848403895281516108dd8582610878565b94506108e88361088c565b925060208a019950506001810190506108c4565b50829750879550505050505092915050565b600060208201905081810360008301526109288184610899565b905092915050565b600082825260208201905092915050565b7f43616e27742062757920636f6666656520776974682030204574680000000000600082015250565b6000610977601b83610930565b915061098282610941565b602082019050919050565b600060208201905081810360008301526109a68161096a565b9050919050565b6109b68161076d565b82525050565b60006109c782610786565b6109d18185610930565b93506109e18185602086016107a2565b6109ea8161054c565b840191505092915050565b6000606082019050610a0a60008301866109ad565b8181036020830152610a1c81856109bc565b90508181036040830152610a3081846109bc565b9050949350505050565b7f596f7520617265206e6f742061204f776e6572202c63616e742077696474687260008201527f61772066756e6473000000000000000000000000000000000000000000000000602082015250565b6000610a96602883610930565b9150610aa182610a3a565b604082019050919050565b60006020820190508181036000830152610ac581610a89565b9050919050565b7f4e487b7100000000000000000000000000000000000000000000000000000000600052602260045260246000fd5b60006002820490506001821680610b1357607f821691505b60208210811415610b2757610b26610acc565b5b5091905056fea26469706673582212203fcdf800ba6497583262f964d5cdeafac1ccf90982da9442355d74bff25cdc7a64736f6c63430008090033",
  "linkReferences": {},
  "deployedLinkReferences": {}
}